{"abi":[{"inputs":[{"internalType":"address","name":"_dappTokenAddress","type":"address"}],"stateMutability":"nonpayable","type":"constructor","name":"constructor"},{"anonymous":false,"inputs":[{"indexed":true,"internalType":"address","name":"previousOwner","type":"address"},{"indexed":true,"internalType":"address","name":"newOwner","type":"address"}],"name":"OwnershipTransferred","type":"event"},{"inputs":[{"internalType":"address","name":"_token","type":"address"}],"name":"addAllowedTokens","outputs":[],"stateMutability":"nonpayable","type":"function"},{"inputs":[{"internalType":"address","name":"","type":"address"}],"name":"allowedTokens","outputs":[{"internalType":"bool","name":"","type":"bool"}],"stateMutability":"view","type":"function"},{"inputs":[{"internalType":"uint256","name":"","type":"uint256"}],"name":"allowedTokensArr","outputs":[{"internalType":"address","name":"","type":"address"}],"stateMutability":"view","type":"function"},{"inputs":[],"name":"dappToken","outputs":[{"internalType":"contract IERC20","name":"","type":"address"}],"stateMutability":"view","type":"function"},{"inputs":[{"internalType":"address","name":"_token","type":"address"}],"name":"getTokenValue","outputs":[{"internalType":"uint256","name":"","type":"uint256"},{"internalType":"uint256","name":"","type":"uint256"}],"stateMutability":"view","type":"function"},{"inputs":[{"internalType":"address","name":"_user","type":"address"},{"internalType":"address","name":"_token","type":"address"}],"name":"getUserSingleTokenValue","outputs":[{"internalType":"uint256","name":"","type":"uint256"}],"stateMutability":"view","type":"function"},{"inputs":[{"internalType":"address","name":"_user","type":"address"}],"name":"getUserTotalValue","outputs":[{"internalType":"uint256","name":"","type":"uint256"}],"stateMutability":"view","type":"function"},{"inputs":[],"name":"issueTokens","outputs":[],"stateMutability":"nonpayable","type":"function"},{"inputs":[],"name":"owner","outputs":[{"internalType":"address","name":"","type":"address"}],"stateMutability":"view","type":"function"},{"inputs":[],"name":"renounceOwnership","outputs":[],"stateMutability":"nonpayable","type":"function"},{"inputs":[{"internalType":"address","name":"_token","type":"address"},{"internalType":"address","name":"_priceFeed","type":"address"}],"name":"setPriceFeedContract","outputs":[],"stateMutability":"nonpayable","type":"function"},{"inputs":[{"internalType":"uint256","name":"_amount","type":"uint256"},{"internalType":"address","name":"_token","type":"address"}],"name":"stakeTokens","outputs":[],"stateMutability":"nonpayable","type":"function"},{"inputs":[{"internalType":"uint256","name":"","type":"uint256"}],"name":"stakers","outputs":[{"internalType":"address","name":"","type":"address"}],"stateMutability":"view","type":"function"},{"inputs":[{"internalType":"address","name":"","type":"address"},{"internalType":"address","name":"","type":"address"}],"name":"stakingBalance","outputs":[{"internalType":"uint256","name":"","type":"uint256"}],"stateMutability":"view","type":"function"},{"inputs":[{"internalType":"address","name":"_token","type":"address"}],"name":"tokenIsAllowed","outputs":[{"internalType":"bool","name":"","type":"bool"}],"stateMutability":"view","type":"function"},{"inputs":[{"internalType":"address","name":"","type":"address"}],"name":"tokenPriceFeedMapping","outputs":[{"internalType":"address","name":"","type":"address"}],"stateMutability":"view","type":"function"},{"inputs":[{"internalType":"address","name":"newOwner","type":"address"}],"name":"transferOwnership","outputs":[],"stateMutability":"nonpayable","type":"function"},{"inputs":[{"internalType":"address","name":"","type":"address"}],"name":"uniqueTokensStaked","outputs":[{"internalType":"uint256","name":"","type":"uint256"}],"stateMutability":"view","type":"function"},{"inputs":[{"internalType":"address","name":"_token","type":"address"}],"name":"unstakeTokens","outputs":[],"stateMutability":"nonpayable","type":"function"}],"bytecode":"608060405234801561001057600080fd5b5060405161103938038061103983398101604081905261002f916100ad565b6100383361005d565b600180546001600160a01b0319166001600160a01b03929092169190911790556100dd565b600080546001600160a01b038381166001600160a01b0319831681178455604051919092169283917f8be0079c531659141344cd1fd0a4f28419497f9722a3daafe3b4186f6b6457e09190a35050565b6000602082840312156100bf57600080fd5b81516001600160a01b03811681146100d657600080fd5b9392505050565b610f4d806100ec6000396000f3fe608060405234801561001057600080fd5b50600436106101215760003560e01c8063715018a6116100ad578063dd5b846711610071578063dd5b846714610280578063e744092e146102bc578063f1c5d6c2146102df578063f2fde38b14610307578063fd5e6dd11461031a57600080fd5b8063715018a614610221578063877dd39d146102295780638da5cb5b1461023c578063af3f5e221461024d578063b83e02341461026057600080fd5b806329161a00116100f457806329161a00146101b55780632d1ad8b8146101e05780632e1b7398146101f35780635eb186f81461020657806360ab58521461021957600080fd5b80630bea440d14610126578063171e44ea1461013b578063276b11da1461014e57806327927b3e14610174575b600080fd5b610139610134366004610bfd565b61032d565b005b610139610149366004610c29565b6104fa565b61016161015c366004610c4b565b61058a565b6040519081526020015b60405180910390f35b61019d610182366004610c29565b6007602052600090815260409020546001600160a01b031681565b6040516001600160a01b03909116815260200161016b565b6101616101c3366004610c4b565b600460209081526000928352604080842090915290825290205481565b6101396101ee366004610c29565b610620565b61019d610201366004610c75565b610754565b60015461019d906001600160a01b031681565b61013961077e565b61013961087b565b610139610237366004610c4b565b6108b1565b6000546001600160a01b031661019d565b61016161025b366004610c29565b610909565b61016161026e366004610c29565b60066020526000908152604090205481565b6102ac61028e366004610c29565b6001600160a01b031660009081526002602052604090205460ff1690565b604051901515815260200161016b565b6102ac6102ca366004610c29565b60026020526000908152604090205460ff1681565b6102f26102ed366004610c29565b6109c4565b6040805192835260208301919091520161016b565b610139610315366004610c29565b610ac5565b61019d610328366004610c75565b610b5d565b600082116103825760405162461bcd60e51b815260206004820152601a60248201527f416d6f756e74206d757374206265206d6f7265207468616e203000000000000060448201526064015b60405180910390fd5b6001600160a01b03811660009081526002602052604090205460ff166103e25760405162461bcd60e51b8152602060048201526015602482015274151bdad95b881b5d5cdd08189948185b1b1bddd959605a1b6044820152606401610379565b6040516323b872dd60e01b8152336004820152306024820152604481018390526001600160a01b038216906323b872dd906064016020604051808303816000875af1158015610435573d6000803e3d6000fd5b505050506040513d601f19601f820116820180604052508101906104599190610c8e565b506104643382610b6d565b6001600160a01b038116600090815260046020908152604080832033845290915281208054849290610497908490610cc6565b9091555050336000908152600660205260409020546001036104f657600580546001810182556000919091527f036b6384b5eca791c62761152d0c79bb0604c104a5fb6f4eb0703f3154bb3db00180546001600160a01b031916331790555b5050565b6000546001600160a01b031633146105245760405162461bcd60e51b815260040161037990610cde565b6001600160a01b03166000818152600260205260408120805460ff191660019081179091556003805491820181559091527fc2575a0e9e593c00f959f8c92f12db2869c3395a3b0502d05e2516446f71f85b0180546001600160a01b0319169091179055565b6001600160a01b0380821660009081526004602090815260408083209386168352929052908120546105be5750600061061a565b6000806105ca846109c4565b90925090506105da81600a610df7565b6001600160a01b038086166000908152600460209081526040808320938a168352929052205461060b908490610e03565b6106159190610e22565b925050505b92915050565b6001600160a01b0381166000908152600460209081526040808320338452909152902054806106a05760405162461bcd60e51b815260206004820152602660248201527f5374616b696e672062616c616e6365206d75737420626520677265617465722060448201526507468616e20360d41b6064820152608401610379565b60405163a9059cbb60e01b8152336004820152602481018290526001600160a01b0383169063a9059cbb906044016020604051808303816000875af11580156106ed573d6000803e3d6000fd5b505050506040513d601f19601f820116820180604052508101906107119190610c8e565b506001600160a01b038216600090815260046020908152604080832033845282528083208390556006909152812080549161074b83610e44565b91905055505050565b6003818154811061076457600080fd5b6000918252602090912001546001600160a01b0316905081565b6000546001600160a01b031633146107a85760405162461bcd60e51b815260040161037990610cde565b60005b600554811015610878576000600582815481106107ca576107ca610e5b565b60009182526020822001546001600160a01b031691506107e982610909565b60015460405163a9059cbb60e01b81526001600160a01b0385811660048301526024820184905292935091169063a9059cbb906044016020604051808303816000875af115801561083e573d6000803e3d6000fd5b505050506040513d601f19601f820116820180604052508101906108629190610c8e565b505050808061087090610e71565b9150506107ab565b50565b6000546001600160a01b031633146108a55760405162461bcd60e51b815260040161037990610cde565b6108af6000610b91565b565b6000546001600160a01b031633146108db5760405162461bcd60e51b815260040161037990610cde565b6001600160a01b03918216600090815260076020526040902080546001600160a01b03191691909216179055565b6001600160a01b0381166000908152600660205260408120546109605760405162461bcd60e51b815260206004820152600f60248201526e139bc8151bdad95b8814dd185ad959608a1b6044820152606401610379565b6000805b6003548110156109bd5761099f846003838154811061098557610985610e5b565b6000918252602090912001546001600160a01b031661058a565b6109a99083610cc6565b9150806109b581610e71565b915050610964565b5092915050565b6001600160a01b03808216600090815260076020526040808220548151633fabe5a360e21b815291519293849391169182918491839163feaf968c9160048082019260a0929091908290030181865afa158015610a25573d6000803e3d6000fd5b505050506040513d601f19601f82011682018060405250810190610a499190610ea4565b5050509150506000826001600160a01b031663313ce5676040518163ffffffff1660e01b8152600401602060405180830381865afa158015610a8f573d6000803e3d6000fd5b505050506040513d601f19601f82011682018060405250810190610ab39190610ef4565b919760ff909216965090945050505050565b6000546001600160a01b03163314610aef5760405162461bcd60e51b815260040161037990610cde565b6001600160a01b038116610b545760405162461bcd60e51b815260206004820152602660248201527f4f776e61626c653a206e6577206f776e657220697320746865207a65726f206160448201526564647265737360d01b6064820152608401610379565b61087881610b91565b6005818154811061076457600080fd5b6001600160a01b038216600090815260066020526040812080549161074b83610e71565b600080546001600160a01b038381166001600160a01b0319831681178455604051919092169283917f8be0079c531659141344cd1fd0a4f28419497f9722a3daafe3b4186f6b6457e09190a35050565b80356001600160a01b0381168114610bf857600080fd5b919050565b60008060408385031215610c1057600080fd5b82359150610c2060208401610be1565b90509250929050565b600060208284031215610c3b57600080fd5b610c4482610be1565b9392505050565b60008060408385031215610c5e57600080fd5b610c6783610be1565b9150610c2060208401610be1565b600060208284031215610c8757600080fd5b5035919050565b600060208284031215610ca057600080fd5b81518015158114610c4457600080fd5b634e487b7160e01b600052601160045260246000fd5b60008219821115610cd957610cd9610cb0565b500190565b6020808252818101527f4f776e61626c653a2063616c6c6572206973206e6f7420746865206f776e6572604082015260600190565b600181815b80851115610d4e578160001904821115610d3457610d34610cb0565b80851615610d4157918102915b93841c9390800290610d18565b509250929050565b600082610d655750600161061a565b81610d725750600061061a565b8160018114610d885760028114610d9257610dae565b600191505061061a565b60ff841115610da357610da3610cb0565b50506001821b61061a565b5060208310610133831016604e8410600b8410161715610dd1575081810a61061a565b610ddb8383610d13565b8060001904821115610def57610def610cb0565b029392505050565b6000610c448383610d56565b6000816000190483118215151615610e1d57610e1d610cb0565b500290565b600082610e3f57634e487b7160e01b600052601260045260246000fd5b500490565b600081610e5357610e53610cb0565b506000190190565b634e487b7160e01b600052603260045260246000fd5b600060018201610e8357610e83610cb0565b5060010190565b805169ffffffffffffffffffff81168114610bf857600080fd5b600080600080600060a08688031215610ebc57600080fd5b610ec586610e8a565b9450602086015193506040860151925060608601519150610ee860808701610e8a565b90509295509295909350565b600060208284031215610f0657600080fd5b815160ff81168114610c4457600080fdfea2646970667358221220708cb32bbe5ee26a53811364cbbf37e4797700b851f7d98c44c46f37ecac34b064736f6c634300080e0033","bytecodeSha1":"f08a18918fb244238f0ec8da9f0c25846325abbd","compiler":{"evm_version":"istanbul","optimizer":{"enabled":true,"runs":200},"version":"0.8.14+commit.80d49f37"},"contractName":"TokenFarm","language":"Solidity","natspec":{"kind":"dev","methods":{"owner()":{"details":"Returns the address of the current owner."},"renounceOwnership()":{"details":"Leaves the contract without owner. It will not be possible to call `onlyOwner` functions anymore. Can only be called by the current owner. NOTE: Renouncing ownership will leave the contract without an owner, thereby removing any functionality that is only available to the owner."},"transferOwnership(address)":{"details":"Transfers ownership of the contract to a new account (`newOwner`). Can only be called by the current owner."}},"version":1},"opcodes":"PUSH1 0x80 PUSH1 0x40 MSTORE CALLVALUE DUP1 ISZERO PUSH2 0x10 JUMPI PUSH1 0x0 DUP1 REVERT JUMPDEST POP PUSH1 0x4 CALLDATASIZE LT PUSH2 0x121 JUMPI PUSH1 0x0 CALLDATALOAD PUSH1 0xE0 SHR DUP1 PUSH4 0x715018A6 GT PUSH2 0xAD JUMPI DUP1 PUSH4 0xDD5B8467 GT PUSH2 0x71 JUMPI DUP1 PUSH4 0xDD5B8467 EQ PUSH2 0x280 JUMPI DUP1 PUSH4 0xE744092E EQ PUSH2 0x2BC JUMPI DUP1 PUSH4 0xF1C5D6C2 EQ PUSH2 0x2DF JUMPI DUP1 PUSH4 0xF2FDE38B EQ PUSH2 0x307 JUMPI DUP1 PUSH4 0xFD5E6DD1 EQ PUSH2 0x31A JUMPI PUSH1 0x0 DUP1 REVERT JUMPDEST DUP1 PUSH4 0x715018A6 EQ PUSH2 0x221 JUMPI DUP1 PUSH4 0x877DD39D EQ PUSH2 0x229 JUMPI DUP1 PUSH4 0x8DA5CB5B EQ PUSH2 0x23C JUMPI DUP1 PUSH4 0xAF3F5E22 EQ PUSH2 0x24D JUMPI DUP1 PUSH4 0xB83E0234 EQ PUSH2 0x260 JUMPI PUSH1 0x0 DUP1 REVERT JUMPDEST DUP1 PUSH4 0x29161A00 GT PUSH2 0xF4 JUMPI DUP1 PUSH4 0x29161A00 EQ PUSH2 0x1B5 JUMPI DUP1 PUSH4 0x2D1AD8B8 EQ PUSH2 0x1E0 JUMPI DUP1 PUSH4 0x2E1B7398 EQ PUSH2 0x1F3 JUMPI DUP1 PUSH4 0x5EB186F8 EQ PUSH2 0x206 JUMPI DUP1 PUSH4 0x60AB5852 EQ PUSH2 0x219 JUMPI PUSH1 0x0 DUP1 REVERT JUMPDEST DUP1 PUSH4 0xBEA440D EQ PUSH2 0x126 JUMPI DUP1 PUSH4 0x171E44EA EQ PUSH2 0x13B JUMPI DUP1 PUSH4 0x276B11DA EQ PUSH2 0x14E JUMPI DUP1 PUSH4 0x27927B3E EQ PUSH2 0x174 JUMPI JUMPDEST PUSH1 0x0 DUP1 REVERT JUMPDEST PUSH2 0x139 PUSH2 0x134 CALLDATASIZE PUSH1 0x4 PUSH2 0xBFD JUMP JUMPDEST PUSH2 0x32D JUMP JUMPDEST STOP JUMPDEST PUSH2 0x139 PUSH2 0x149 CALLDATASIZE PUSH1 0x4 PUSH2 0xC29 JUMP JUMPDEST PUSH2 0x4FA JUMP JUMPDEST PUSH2 0x161 PUSH2 0x15C CALLDATASIZE PUSH1 0x4 PUSH2 0xC4B JUMP JUMPDEST PUSH2 0x58A JUMP JUMPDEST PUSH1 0x40 MLOAD SWAP1 DUP2 MSTORE PUSH1 0x20 ADD JUMPDEST PUSH1 0x40 MLOAD DUP1 SWAP2 SUB SWAP1 RETURN JUMPDEST PUSH2 0x19D PUSH2 0x182 CALLDATASIZE PUSH1 0x4 PUSH2 0xC29 JUMP JUMPDEST PUSH1 0x7 PUSH1 0x20 MSTORE PUSH1 0x0 SWAP1 DUP2 MSTORE PUSH1 0x40 SWAP1 KECCAK256 SLOAD PUSH1 0x1 PUSH1 0x1 PUSH1 0xA0 SHL SUB AND DUP2 JUMP JUMPDEST PUSH1 0x40 MLOAD PUSH1 0x1 PUSH1 0x1 PUSH1 0xA0 SHL SUB SWAP1 SWAP2 AND DUP2 MSTORE PUSH1 0x20 ADD PUSH2 0x16B JUMP JUMPDEST PUSH2 0x161 PUSH2 0x1C3 CALLDATASIZE PUSH1 0x4 PUSH2 0xC4B JUMP JUMPDEST PUSH1 0x4 PUSH1 0x20 SWAP1 DUP2 MSTORE PUSH1 0x0 SWAP3 DUP4 MSTORE PUSH1 0x40 DUP1 DUP5 KECCAK256 SWAP1 SWAP2 MSTORE SWAP1 DUP3 MSTORE SWAP1 KECCAK256 SLOAD DUP2 JUMP JUMPDEST PUSH2 0x139 PUSH2 0x1EE CALLDATASIZE PUSH1 0x4 PUSH2 0xC29 JUMP JUMPDEST PUSH2 0x620 JUMP JUMPDEST PUSH2 0x19D PUSH2 0x201 CALLDATASIZE PUSH1 0x4 PUSH2 0xC75 JUMP JUMPDEST PUSH2 0x754 JUMP JUMPDEST PUSH1 0x1 SLOAD PUSH2 0x19D SWAP1 PUSH1 0x1 PUSH1 0x1 PUSH1 0xA0 SHL SUB AND DUP2 JUMP JUMPDEST PUSH2 0x139 PUSH2 0x77E JUMP JUMPDEST PUSH2 0x139 PUSH2 0x87B JUMP JUMPDEST PUSH2 0x139 PUSH2 0x237 CALLDATASIZE PUSH1 0x4 PUSH2 0xC4B JUMP JUMPDEST PUSH2 0x8B1 JUMP JUMPDEST PUSH1 0x0 SLOAD PUSH1 0x1 PUSH1 0x1 PUSH1 0xA0 SHL SUB AND PUSH2 0x19D JUMP JUMPDEST PUSH2 0x161 PUSH2 0x25B CALLDATASIZE PUSH1 0x4 PUSH2 0xC29 JUMP JUMPDEST PUSH2 0x909 JUMP JUMPDEST PUSH2 0x161 PUSH2 0x26E CALLDATASIZE PUSH1 0x4 PUSH2 0xC29 JUMP JUMPDEST PUSH1 0x6 PUSH1 0x20 MSTORE PUSH1 0x0 SWAP1 DUP2 MSTORE PUSH1 0x40 SWAP1 KECCAK256 SLOAD DUP2 JUMP JUMPDEST PUSH2 0x2AC PUSH2 0x28E CALLDATASIZE PUSH1 0x4 PUSH2 0xC29 JUMP JUMPDEST PUSH1 0x1 PUSH1 0x1 PUSH1 0xA0 SHL SUB AND PUSH1 0x0 SWAP1 DUP2 MSTORE PUSH1 0x2 PUSH1 0x20 MSTORE PUSH1 0x40 SWAP1 KECCAK256 SLOAD PUSH1 0xFF AND SWAP1 JUMP JUMPDEST PUSH1 0x40 MLOAD SWAP1 ISZERO ISZERO DUP2 MSTORE PUSH1 0x20 ADD PUSH2 0x16B JUMP JUMPDEST PUSH2 0x2AC PUSH2 0x2CA CALLDATASIZE PUSH1 0x4 PUSH2 0xC29 JUMP JUMPDEST PUSH1 0x2 PUSH1 0x20 MSTORE PUSH1 0x0 SWAP1 DUP2 MSTORE PUSH1 0x40 SWAP1 KECCAK256 SLOAD PUSH1 0xFF AND DUP2 JUMP JUMPDEST PUSH2 0x2F2 PUSH2 0x2ED CALLDATASIZE PUSH1 0x4 PUSH2 0xC29 JUMP JUMPDEST PUSH2 0x9C4 JUMP JUMPDEST PUSH1 0x40 DUP1 MLOAD SWAP3 DUP4 MSTORE PUSH1 0x20 DUP4 ADD SWAP2 SWAP1 SWAP2 MSTORE ADD PUSH2 0x16B JUMP JUMPDEST PUSH2 0x139 PUSH2 0x315 CALLDATASIZE PUSH1 0x4 PUSH2 0xC29 JUMP JUMPDEST PUSH2 0xAC5 JUMP JUMPDEST PUSH2 0x19D PUSH2 0x328 CALLDATASIZE PUSH1 0x4 PUSH2 0xC75 JUMP JUMPDEST PUSH2 0xB5D JUMP JUMPDEST PUSH1 0x0 DUP3 GT PUSH2 0x382 JUMPI PUSH1 0x40 MLOAD PUSH3 0x461BCD PUSH1 0xE5 SHL DUP2 MSTORE PUSH1 0x20 PUSH1 0x4 DUP3 ADD MSTORE PUSH1 0x1A PUSH1 0x24 DUP3 ADD MSTORE PUSH32 0x416D6F756E74206D757374206265206D6F7265207468616E2030000000000000 PUSH1 0x44 DUP3 ADD MSTORE PUSH1 0x64 ADD JUMPDEST PUSH1 0x40 MLOAD DUP1 SWAP2 SUB SWAP1 REVERT JUMPDEST PUSH1 0x1 PUSH1 0x1 PUSH1 0xA0 SHL SUB DUP2 AND PUSH1 0x0 SWAP1 DUP2 MSTORE PUSH1 0x2 PUSH1 0x20 MSTORE PUSH1 0x40 SWAP1 KECCAK256 SLOAD PUSH1 0xFF AND PUSH2 0x3E2 JUMPI PUSH1 0x40 MLOAD PUSH3 0x461BCD PUSH1 0xE5 SHL DUP2 MSTORE PUSH1 0x20 PUSH1 0x4 DUP3 ADD MSTORE PUSH1 0x15 PUSH1 0x24 DUP3 ADD MSTORE PUSH21 0x151BDAD95B881B5D5CDD08189948185B1B1BDDD959 PUSH1 0x5A SHL PUSH1 0x44 DUP3 ADD MSTORE PUSH1 0x64 ADD PUSH2 0x379 JUMP JUMPDEST PUSH1 0x40 MLOAD PUSH4 0x23B872DD PUSH1 0xE0 SHL DUP2 MSTORE CALLER PUSH1 0x4 DUP3 ADD MSTORE ADDRESS PUSH1 0x24 DUP3 ADD MSTORE PUSH1 0x44 DUP2 ADD DUP4 SWAP1 MSTORE PUSH1 0x1 PUSH1 0x1 PUSH1 0xA0 SHL SUB DUP3 AND SWAP1 PUSH4 0x23B872DD SWAP1 PUSH1 0x64 ADD PUSH1 0x20 PUSH1 0x40 MLOAD DUP1 DUP4 SUB DUP2 PUSH1 0x0 DUP8 GAS CALL ISZERO DUP1 ISZERO PUSH2 0x435 JUMPI RETURNDATASIZE PUSH1 0x0 DUP1 RETURNDATACOPY RETURNDATASIZE PUSH1 0x0 REVERT JUMPDEST POP POP POP POP PUSH1 0x40 MLOAD RETURNDATASIZE PUSH1 0x1F NOT PUSH1 0x1F DUP3 ADD AND DUP3 ADD DUP1 PUSH1 0x40 MSTORE POP DUP2 ADD SWAP1 PUSH2 0x459 SWAP2 SWAP1 PUSH2 0xC8E JUMP JUMPDEST POP PUSH2 0x464 CALLER DUP3 PUSH2 0xB6D JUMP JUMPDEST PUSH1 0x1 PUSH1 0x1 PUSH1 0xA0 SHL SUB DUP2 AND PUSH1 0x0 SWAP1 DUP2 MSTORE PUSH1 0x4 PUSH1 0x20 SWAP1 DUP2 MSTORE PUSH1 0x40 DUP1 DUP4 KECCAK256 CALLER DUP5 MSTORE SWAP1 SWAP2 MSTORE DUP2 KECCAK256 DUP1 SLOAD DUP5 SWAP3 SWAP1 PUSH2 0x497 SWAP1 DUP5 SWAP1 PUSH2 0xCC6 JUMP JUMPDEST SWAP1 SWAP2 SSTORE POP POP CALLER PUSH1 0x0 SWAP1 DUP2 MSTORE PUSH1 0x6 PUSH1 0x20 MSTORE PUSH1 0x40 SWAP1 KECCAK256 SLOAD PUSH1 0x1 SUB PUSH2 0x4F6 JUMPI PUSH1 0x5 DUP1 SLOAD PUSH1 0x1 DUP2 ADD DUP3 SSTORE PUSH1 0x0 SWAP2 SWAP1 SWAP2 MSTORE PUSH32 0x36B6384B5ECA791C62761152D0C79BB0604C104A5FB6F4EB0703F3154BB3DB0 ADD DUP1 SLOAD PUSH1 0x1 PUSH1 0x1 PUSH1 0xA0 SHL SUB NOT AND CALLER OR SWAP1 SSTORE JUMPDEST POP POP JUMP JUMPDEST PUSH1 0x0 SLOAD PUSH1 0x1 PUSH1 0x1 PUSH1 0xA0 SHL SUB AND CALLER EQ PUSH2 0x524 JUMPI PUSH1 0x40 MLOAD PUSH3 0x461BCD PUSH1 0xE5 SHL DUP2 MSTORE PUSH1 0x4 ADD PUSH2 0x379 SWAP1 PUSH2 0xCDE JUMP JUMPDEST PUSH1 0x1 PUSH1 0x1 PUSH1 0xA0 SHL SUB AND PUSH1 0x0 DUP2 DUP2 MSTORE PUSH1 0x2 PUSH1 0x20 MSTORE PUSH1 0x40 DUP2 KECCAK256 DUP1 SLOAD PUSH1 0xFF NOT AND PUSH1 0x1 SWAP1 DUP2 OR SWAP1 SWAP2 SSTORE PUSH1 0x3 DUP1 SLOAD SWAP2 DUP3 ADD DUP2 SSTORE SWAP1 SWAP2 MSTORE PUSH32 0xC2575A0E9E593C00F959F8C92F12DB2869C3395A3B0502D05E2516446F71F85B ADD DUP1 SLOAD PUSH1 0x1 PUSH1 0x1 PUSH1 0xA0 SHL SUB NOT AND SWAP1 SWAP2 OR SWAP1 SSTORE JUMP JUMPDEST PUSH1 0x1 PUSH1 0x1 PUSH1 0xA0 SHL SUB DUP1 DUP3 AND PUSH1 0x0 SWAP1 DUP2 MSTORE PUSH1 0x4 PUSH1 0x20 SWAP1 DUP2 MSTORE PUSH1 0x40 DUP1 DUP4 KECCAK256 SWAP4 DUP7 AND DUP4 MSTORE SWAP3 SWAP1 MSTORE SWAP1 DUP2 KECCAK256 SLOAD PUSH2 0x5BE JUMPI POP PUSH1 0x0 PUSH2 0x61A JUMP JUMPDEST PUSH1 0x0 DUP1 PUSH2 0x5CA DUP5 PUSH2 0x9C4 JUMP JUMPDEST SWAP1 SWAP3 POP SWAP1 POP PUSH2 0x5DA DUP2 PUSH1 0xA PUSH2 0xDF7 JUMP JUMPDEST PUSH1 0x1 PUSH1 0x1 PUSH1 0xA0 SHL SUB DUP1 DUP7 AND PUSH1 0x0 SWAP1 DUP2 MSTORE PUSH1 0x4 PUSH1 0x20 SWAP1 DUP2 MSTORE PUSH1 0x40 DUP1 DUP4 KECCAK256 SWAP4 DUP11 AND DUP4 MSTORE SWAP3 SWAP1 MSTORE KECCAK256 SLOAD PUSH2 0x60B SWAP1 DUP5 SWAP1 PUSH2 0xE03 JUMP JUMPDEST PUSH2 0x615 SWAP2 SWAP1 PUSH2 0xE22 JUMP JUMPDEST SWAP3 POP POP POP JUMPDEST SWAP3 SWAP2 POP POP JUMP JUMPDEST PUSH1 0x1 PUSH1 0x1 PUSH1 0xA0 SHL SUB DUP2 AND PUSH1 0x0 SWAP1 DUP2 MSTORE PUSH1 0x4 PUSH1 0x20 SWAP1 DUP2 MSTORE PUSH1 0x40 DUP1 DUP4 KECCAK256 CALLER DUP5 MSTORE SWAP1 SWAP2 MSTORE SWAP1 KECCAK256 SLOAD DUP1 PUSH2 0x6A0 JUMPI PUSH1 0x40 MLOAD PUSH3 0x461BCD PUSH1 0xE5 SHL DUP2 MSTORE PUSH1 0x20 PUSH1 0x4 DUP3 ADD MSTORE PUSH1 0x26 PUSH1 0x24 DUP3 ADD MSTORE PUSH32 0x5374616B696E672062616C616E6365206D757374206265206772656174657220 PUSH1 0x44 DUP3 ADD MSTORE PUSH6 0x7468616E203 PUSH1 0xD4 SHL PUSH1 0x64 DUP3 ADD MSTORE PUSH1 0x84 ADD PUSH2 0x379 JUMP JUMPDEST PUSH1 0x40 MLOAD PUSH4 0xA9059CBB PUSH1 0xE0 SHL DUP2 MSTORE CALLER PUSH1 0x4 DUP3 ADD MSTORE PUSH1 0x24 DUP2 ADD DUP3 SWAP1 MSTORE PUSH1 0x1 PUSH1 0x1 PUSH1 0xA0 SHL SUB DUP4 AND SWAP1 PUSH4 0xA9059CBB SWAP1 PUSH1 0x44 ADD PUSH1 0x20 PUSH1 0x40 MLOAD DUP1 DUP4 SUB DUP2 PUSH1 0x0 DUP8 GAS CALL ISZERO DUP1 ISZERO PUSH2 0x6ED JUMPI RETURNDATASIZE PUSH1 0x0 DUP1 RETURNDATACOPY RETURNDATASIZE PUSH1 0x0 REVERT JUMPDEST POP POP POP POP PUSH1 0x40 MLOAD RETURNDATASIZE PUSH1 0x1F NOT PUSH1 0x1F DUP3 ADD AND DUP3 ADD DUP1 PUSH1 0x40 MSTORE POP DUP2 ADD SWAP1 PUSH2 0x711 SWAP2 SWAP1 PUSH2 0xC8E JUMP JUMPDEST POP PUSH1 0x1 PUSH1 0x1 PUSH1 0xA0 SHL SUB DUP3 AND PUSH1 0x0 SWAP1 DUP2 MSTORE PUSH1 0x4 PUSH1 0x20 SWAP1 DUP2 MSTORE PUSH1 0x40 DUP1 DUP4 KECCAK256 CALLER DUP5 MSTORE DUP3 MSTORE DUP1 DUP4 KECCAK256 DUP4 SWAP1 SSTORE PUSH1 0x6 SWAP1 SWAP2 MSTORE DUP2 KECCAK256 DUP1 SLOAD SWAP2 PUSH2 0x74B DUP4 PUSH2 0xE44 JUMP JUMPDEST SWAP2 SWAP1 POP SSTORE POP POP POP JUMP JUMPDEST PUSH1 0x3 DUP2 DUP2 SLOAD DUP2 LT PUSH2 0x764 JUMPI PUSH1 0x0 DUP1 REVERT JUMPDEST PUSH1 0x0 SWAP2 DUP3 MSTORE PUSH1 0x20 SWAP1 SWAP2 KECCAK256 ADD SLOAD PUSH1 0x1 PUSH1 0x1 PUSH1 0xA0 SHL SUB AND SWAP1 POP DUP2 JUMP JUMPDEST PUSH1 0x0 SLOAD PUSH1 0x1 PUSH1 0x1 PUSH1 0xA0 SHL SUB AND CALLER EQ PUSH2 0x7A8 JUMPI PUSH1 0x40 MLOAD PUSH3 0x461BCD PUSH1 0xE5 SHL DUP2 MSTORE PUSH1 0x4 ADD PUSH2 0x379 SWAP1 PUSH2 0xCDE JUMP JUMPDEST PUSH1 0x0 JUMPDEST PUSH1 0x5 SLOAD DUP2 LT ISZERO PUSH2 0x878 JUMPI PUSH1 0x0 PUSH1 0x5 DUP3 DUP2 SLOAD DUP2 LT PUSH2 0x7CA JUMPI PUSH2 0x7CA PUSH2 0xE5B JUMP JUMPDEST PUSH1 0x0 SWAP2 DUP3 MSTORE PUSH1 0x20 DUP3 KECCAK256 ADD SLOAD PUSH1 0x1 PUSH1 0x1 PUSH1 0xA0 SHL SUB AND SWAP2 POP PUSH2 0x7E9 DUP3 PUSH2 0x909 JUMP JUMPDEST PUSH1 0x1 SLOAD PUSH1 0x40 MLOAD PUSH4 0xA9059CBB PUSH1 0xE0 SHL DUP2 MSTORE PUSH1 0x1 PUSH1 0x1 PUSH1 0xA0 SHL SUB DUP6 DUP2 AND PUSH1 0x4 DUP4 ADD MSTORE PUSH1 0x24 DUP3 ADD DUP5 SWAP1 MSTORE SWAP3 SWAP4 POP SWAP2 AND SWAP1 PUSH4 0xA9059CBB SWAP1 PUSH1 0x44 ADD PUSH1 0x20 PUSH1 0x40 MLOAD DUP1 DUP4 SUB DUP2 PUSH1 0x0 DUP8 GAS CALL ISZERO DUP1 ISZERO PUSH2 0x83E JUMPI RETURNDATASIZE PUSH1 0x0 DUP1 RETURNDATACOPY RETURNDATASIZE PUSH1 0x0 REVERT JUMPDEST POP POP POP POP PUSH1 0x40 MLOAD RETURNDATASIZE PUSH1 0x1F NOT PUSH1 0x1F DUP3 ADD AND DUP3 ADD DUP1 PUSH1 0x40 MSTORE POP DUP2 ADD SWAP1 PUSH2 0x862 SWAP2 SWAP1 PUSH2 0xC8E JUMP JUMPDEST POP POP POP DUP1 DUP1 PUSH2 0x870 SWAP1 PUSH2 0xE71 JUMP JUMPDEST SWAP2 POP POP PUSH2 0x7AB JUMP JUMPDEST POP JUMP JUMPDEST PUSH1 0x0 SLOAD PUSH1 0x1 PUSH1 0x1 PUSH1 0xA0 SHL SUB AND CALLER EQ PUSH2 0x8A5 JUMPI PUSH1 0x40 MLOAD PUSH3 0x461BCD PUSH1 0xE5 SHL DUP2 MSTORE PUSH1 0x4 ADD PUSH2 0x379 SWAP1 PUSH2 0xCDE JUMP JUMPDEST PUSH2 0x8AF PUSH1 0x0 PUSH2 0xB91 JUMP JUMPDEST JUMP JUMPDEST PUSH1 0x0 SLOAD PUSH1 0x1 PUSH1 0x1 PUSH1 0xA0 SHL SUB AND CALLER EQ PUSH2 0x8DB JUMPI PUSH1 0x40 MLOAD PUSH3 0x461BCD PUSH1 0xE5 SHL DUP2 MSTORE PUSH1 0x4 ADD PUSH2 0x379 SWAP1 PUSH2 0xCDE JUMP JUMPDEST PUSH1 0x1 PUSH1 0x1 PUSH1 0xA0 SHL SUB SWAP2 DUP3 AND PUSH1 0x0 SWAP1 DUP2 MSTORE PUSH1 0x7 PUSH1 0x20 MSTORE PUSH1 0x40 SWAP1 KECCAK256 DUP1 SLOAD PUSH1 0x1 PUSH1 0x1 PUSH1 0xA0 SHL SUB NOT AND SWAP2 SWAP1 SWAP3 AND OR SWAP1 SSTORE JUMP JUMPDEST PUSH1 0x1 PUSH1 0x1 PUSH1 0xA0 SHL SUB DUP2 AND PUSH1 0x0 SWAP1 DUP2 MSTORE PUSH1 0x6 PUSH1 0x20 MSTORE PUSH1 0x40 DUP2 KECCAK256 SLOAD PUSH2 0x960 JUMPI PUSH1 0x40 MLOAD PUSH3 0x461BCD PUSH1 0xE5 SHL DUP2 MSTORE PUSH1 0x20 PUSH1 0x4 DUP3 ADD MSTORE PUSH1 0xF PUSH1 0x24 DUP3 ADD MSTORE PUSH15 0x139BC8151BDAD95B8814DD185AD959 PUSH1 0x8A SHL PUSH1 0x44 DUP3 ADD MSTORE PUSH1 0x64 ADD PUSH2 0x379 JUMP JUMPDEST PUSH1 0x0 DUP1 JUMPDEST PUSH1 0x3 SLOAD DUP2 LT ISZERO PUSH2 0x9BD JUMPI PUSH2 0x99F DUP5 PUSH1 0x3 DUP4 DUP2 SLOAD DUP2 LT PUSH2 0x985 JUMPI PUSH2 0x985 PUSH2 0xE5B JUMP JUMPDEST PUSH1 0x0 SWAP2 DUP3 MSTORE PUSH1 0x20 SWAP1 SWAP2 KECCAK256 ADD SLOAD PUSH1 0x1 PUSH1 0x1 PUSH1 0xA0 SHL SUB AND PUSH2 0x58A JUMP JUMPDEST PUSH2 0x9A9 SWAP1 DUP4 PUSH2 0xCC6 JUMP JUMPDEST SWAP2 POP DUP1 PUSH2 0x9B5 DUP2 PUSH2 0xE71 JUMP JUMPDEST SWAP2 POP POP PUSH2 0x964 JUMP JUMPDEST POP SWAP3 SWAP2 POP POP JUMP JUMPDEST PUSH1 0x1 PUSH1 0x1 PUSH1 0xA0 SHL SUB DUP1 DUP3 AND PUSH1 0x0 SWAP1 DUP2 MSTORE PUSH1 0x7 PUSH1 0x20 MSTORE PUSH1 0x40 DUP1 DUP3 KECCAK256 SLOAD DUP2 MLOAD PUSH4 0x3FABE5A3 PUSH1 0xE2 SHL DUP2 MSTORE SWAP2 MLOAD SWAP3 SWAP4 DUP5 SWAP4 SWAP2 AND SWAP2 DUP3 SWAP2 DUP5 SWAP2 DUP4 SWAP2 PUSH4 0xFEAF968C SWAP2 PUSH1 0x4 DUP1 DUP3 ADD SWAP3 PUSH1 0xA0 SWAP3 SWAP1 SWAP2 SWAP1 DUP3 SWAP1 SUB ADD DUP2 DUP7 GAS STATICCALL ISZERO DUP1 ISZERO PUSH2 0xA25 JUMPI RETURNDATASIZE PUSH1 0x0 DUP1 RETURNDATACOPY RETURNDATASIZE PUSH1 0x0 REVERT JUMPDEST POP POP POP POP PUSH1 0x40 MLOAD RETURNDATASIZE PUSH1 0x1F NOT PUSH1 0x1F DUP3 ADD AND DUP3 ADD DUP1 PUSH1 0x40 MSTORE POP DUP2 ADD SWAP1 PUSH2 0xA49 SWAP2 SWAP1 PUSH2 0xEA4 JUMP JUMPDEST POP POP POP SWAP2 POP POP PUSH1 0x0 DUP3 PUSH1 0x1 PUSH1 0x1 PUSH1 0xA0 SHL SUB AND PUSH4 0x313CE567 PUSH1 0x40 MLOAD DUP2 PUSH4 0xFFFFFFFF AND PUSH1 0xE0 SHL DUP2 MSTORE PUSH1 0x4 ADD PUSH1 0x20 PUSH1 0x40 MLOAD DUP1 DUP4 SUB DUP2 DUP7 GAS STATICCALL ISZERO DUP1 ISZERO PUSH2 0xA8F JUMPI RETURNDATASIZE PUSH1 0x0 DUP1 RETURNDATACOPY RETURNDATASIZE PUSH1 0x0 REVERT JUMPDEST POP POP POP POP PUSH1 0x40 MLOAD RETURNDATASIZE PUSH1 0x1F NOT PUSH1 0x1F DUP3 ADD AND DUP3 ADD DUP1 PUSH1 0x40 MSTORE POP DUP2 ADD SWAP1 PUSH2 0xAB3 SWAP2 SWAP1 PUSH2 0xEF4 JUMP JUMPDEST SWAP2 SWAP8 PUSH1 0xFF SWAP1 SWAP3 AND SWAP7 POP SWAP1 SWAP5 POP POP POP POP POP JUMP JUMPDEST PUSH1 0x0 SLOAD PUSH1 0x1 PUSH1 0x1 PUSH1 0xA0 SHL SUB AND CALLER EQ PUSH2 0xAEF JUMPI PUSH1 0x40 MLOAD PUSH3 0x461BCD PUSH1 0xE5 SHL DUP2 MSTORE PUSH1 0x4 ADD PUSH2 0x379 SWAP1 PUSH2 0xCDE JUMP JUMPDEST PUSH1 0x1 PUSH1 0x1 PUSH1 0xA0 SHL SUB DUP2 AND PUSH2 0xB54 JUMPI PUSH1 0x40 MLOAD PUSH3 0x461BCD PUSH1 0xE5 SHL DUP2 MSTORE PUSH1 0x20 PUSH1 0x4 DUP3 ADD MSTORE PUSH1 0x26 PUSH1 0x24 DUP3 ADD MSTORE PUSH32 0x4F776E61626C653A206E6577206F776E657220697320746865207A65726F2061 PUSH1 0x44 DUP3 ADD MSTORE PUSH6 0x646472657373 PUSH1 0xD0 SHL PUSH1 0x64 DUP3 ADD MSTORE PUSH1 0x84 ADD PUSH2 0x379 JUMP JUMPDEST PUSH2 0x878 DUP2 PUSH2 0xB91 JUMP JUMPDEST PUSH1 0x5 DUP2 DUP2 SLOAD DUP2 LT PUSH2 0x764 JUMPI PUSH1 0x0 DUP1 REVERT JUMPDEST PUSH1 0x1 PUSH1 0x1 PUSH1 0xA0 SHL SUB DUP3 AND PUSH1 0x0 SWAP1 DUP2 MSTORE PUSH1 0x6 PUSH1 0x20 MSTORE PUSH1 0x40 DUP2 KECCAK256 DUP1 SLOAD SWAP2 PUSH2 0x74B DUP4 PUSH2 0xE71 JUMP JUMPDEST PUSH1 0x0 DUP1 SLOAD PUSH1 0x1 PUSH1 0x1 PUSH1 0xA0 SHL SUB DUP4 DUP2 AND PUSH1 0x1 PUSH1 0x1 PUSH1 0xA0 SHL SUB NOT DUP4 AND DUP2 OR DUP5 SSTORE PUSH1 0x40 MLOAD SWAP2 SWAP1 SWAP3 AND SWAP3 DUP4 SWAP2 PUSH32 0x8BE0079C531659141344CD1FD0A4F28419497F9722A3DAAFE3B4186F6B6457E0 SWAP2 SWAP1 LOG3 POP POP JUMP JUMPDEST DUP1 CALLDATALOAD PUSH1 0x1 PUSH1 0x1 PUSH1 0xA0 SHL SUB DUP2 AND DUP2 EQ PUSH2 0xBF8 JUMPI PUSH1 0x0 DUP1 REVERT JUMPDEST SWAP2 SWAP1 POP JUMP JUMPDEST PUSH1 0x0 DUP1 PUSH1 0x40 DUP4 DUP6 SUB SLT ISZERO PUSH2 0xC10 JUMPI PUSH1 0x0 DUP1 REVERT JUMPDEST DUP3 CALLDATALOAD SWAP2 POP PUSH2 0xC20 PUSH1 0x20 DUP5 ADD PUSH2 0xBE1 JUMP JUMPDEST SWAP1 POP SWAP3 POP SWAP3 SWAP1 POP JUMP JUMPDEST PUSH1 0x0 PUSH1 0x20 DUP3 DUP5 SUB SLT ISZERO PUSH2 0xC3B JUMPI PUSH1 0x0 DUP1 REVERT JUMPDEST PUSH2 0xC44 DUP3 PUSH2 0xBE1 JUMP JUMPDEST SWAP4 SWAP3 POP POP POP JUMP JUMPDEST PUSH1 0x0 DUP1 PUSH1 0x40 DUP4 DUP6 SUB SLT ISZERO PUSH2 0xC5E JUMPI PUSH1 0x0 DUP1 REVERT JUMPDEST PUSH2 0xC67 DUP4 PUSH2 0xBE1 JUMP JUMPDEST SWAP2 POP PUSH2 0xC20 PUSH1 0x20 DUP5 ADD PUSH2 0xBE1 JUMP JUMPDEST PUSH1 0x0 PUSH1 0x20 DUP3 DUP5 SUB SLT ISZERO PUSH2 0xC87 JUMPI PUSH1 0x0 DUP1 REVERT JUMPDEST POP CALLDATALOAD SWAP2 SWAP1 POP JUMP JUMPDEST PUSH1 0x0 PUSH1 0x20 DUP3 DUP5 SUB SLT ISZERO PUSH2 0xCA0 JUMPI PUSH1 0x0 DUP1 REVERT JUMPDEST DUP2 MLOAD DUP1 ISZERO ISZERO DUP2 EQ PUSH2 0xC44 JUMPI PUSH1 0x0 DUP1 REVERT JUMPDEST PUSH4 0x4E487B71 PUSH1 0xE0 SHL PUSH1 0x0 MSTORE PUSH1 0x11 PUSH1 0x4 MSTORE PUSH1 0x24 PUSH1 0x0 REVERT JUMPDEST PUSH1 0x0 DUP3 NOT DUP3 GT ISZERO PUSH2 0xCD9 JUMPI PUSH2 0xCD9 PUSH2 0xCB0 JUMP JUMPDEST POP ADD SWAP1 JUMP JUMPDEST PUSH1 0x20 DUP1 DUP3 MSTORE DUP2 DUP2 ADD MSTORE PUSH32 0x4F776E61626C653A2063616C6C6572206973206E6F7420746865206F776E6572 PUSH1 0x40 DUP3 ADD MSTORE PUSH1 0x60 ADD SWAP1 JUMP JUMPDEST PUSH1 0x1 DUP2 DUP2 JUMPDEST DUP1 DUP6 GT ISZERO PUSH2 0xD4E JUMPI DUP2 PUSH1 0x0 NOT DIV DUP3 GT ISZERO PUSH2 0xD34 JUMPI PUSH2 0xD34 PUSH2 0xCB0 JUMP JUMPDEST DUP1 DUP6 AND ISZERO PUSH2 0xD41 JUMPI SWAP2 DUP2 MUL SWAP2 JUMPDEST SWAP4 DUP5 SHR SWAP4 SWAP1 DUP1 MUL SWAP1 PUSH2 0xD18 JUMP JUMPDEST POP SWAP3 POP SWAP3 SWAP1 POP JUMP JUMPDEST PUSH1 0x0 DUP3 PUSH2 0xD65 JUMPI POP PUSH1 0x1 PUSH2 0x61A JUMP JUMPDEST DUP2 PUSH2 0xD72 JUMPI POP PUSH1 0x0 PUSH2 0x61A JUMP JUMPDEST DUP2 PUSH1 0x1 DUP2 EQ PUSH2 0xD88 JUMPI PUSH1 0x2 DUP2 EQ PUSH2 0xD92 JUMPI PUSH2 0xDAE JUMP JUMPDEST PUSH1 0x1 SWAP2 POP POP PUSH2 0x61A JUMP JUMPDEST PUSH1 0xFF DUP5 GT ISZERO PUSH2 0xDA3 JUMPI PUSH2 0xDA3 PUSH2 0xCB0 JUMP JUMPDEST POP POP PUSH1 0x1 DUP3 SHL PUSH2 0x61A JUMP JUMPDEST POP PUSH1 0x20 DUP4 LT PUSH2 0x133 DUP4 LT AND PUSH1 0x4E DUP5 LT PUSH1 0xB DUP5 LT AND OR ISZERO PUSH2 0xDD1 JUMPI POP DUP2 DUP2 EXP PUSH2 0x61A JUMP JUMPDEST PUSH2 0xDDB DUP4 DUP4 PUSH2 0xD13 JUMP JUMPDEST DUP1 PUSH1 0x0 NOT DIV DUP3 GT ISZERO PUSH2 0xDEF JUMPI PUSH2 0xDEF PUSH2 0xCB0 JUMP JUMPDEST MUL SWAP4 SWAP3 POP POP POP JUMP JUMPDEST PUSH1 0x0 PUSH2 0xC44 DUP4 DUP4 PUSH2 0xD56 JUMP JUMPDEST PUSH1 0x0 DUP2 PUSH1 0x0 NOT DIV DUP4 GT DUP3 ISZERO ISZERO AND ISZERO PUSH2 0xE1D JUMPI PUSH2 0xE1D PUSH2 0xCB0 JUMP JUMPDEST POP MUL SWAP1 JUMP JUMPDEST PUSH1 0x0 DUP3 PUSH2 0xE3F JUMPI PUSH4 0x4E487B71 PUSH1 0xE0 SHL PUSH1 0x0 MSTORE PUSH1 0x12 PUSH1 0x4 MSTORE PUSH1 0x24 PUSH1 0x0 REVERT JUMPDEST POP DIV SWAP1 JUMP JUMPDEST PUSH1 0x0 DUP2 PUSH2 0xE53 JUMPI PUSH2 0xE53 PUSH2 0xCB0 JUMP JUMPDEST POP PUSH1 0x0 NOT ADD SWAP1 JUMP JUMPDEST PUSH4 0x4E487B71 PUSH1 0xE0 SHL PUSH1 0x0 MSTORE PUSH1 0x32 PUSH1 0x4 MSTORE PUSH1 0x24 PUSH1 0x0 REVERT JUMPDEST PUSH1 0x0 PUSH1 0x1 DUP3 ADD PUSH2 0xE83 JUMPI PUSH2 0xE83 PUSH2 0xCB0 JUMP JUMPDEST POP PUSH1 0x1 ADD SWAP1 JUMP JUMPDEST DUP1 MLOAD PUSH10 0xFFFFFFFFFFFFFFFFFFFF DUP2 AND DUP2 EQ PUSH2 0xBF8 JUMPI PUSH1 0x0 DUP1 REVERT JUMPDEST PUSH1 0x0 DUP1 PUSH1 0x0 DUP1 PUSH1 0x0 PUSH1 0xA0 DUP7 DUP9 SUB SLT ISZERO PUSH2 0xEBC JUMPI PUSH1 0x0 DUP1 REVERT JUMPDEST PUSH2 0xEC5 DUP7 PUSH2 0xE8A JUMP JUMPDEST SWAP5 POP PUSH1 0x20 DUP7 ADD MLOAD SWAP4 POP PUSH1 0x40 DUP7 ADD MLOAD SWAP3 POP PUSH1 0x60 DUP7 ADD MLOAD SWAP2 POP PUSH2 0xEE8 PUSH1 0x80 DUP8 ADD PUSH2 0xE8A JUMP JUMPDEST SWAP1 POP SWAP3 SWAP6 POP SWAP3 SWAP6 SWAP1 SWAP4 POP JUMP JUMPDEST PUSH1 0x0 PUSH1 0x20 DUP3 DUP5 SUB SLT ISZERO PUSH2 0xF06 JUMPI PUSH1 0x0 DUP1 REVERT JUMPDEST DUP2 MLOAD PUSH1 0xFF DUP2 AND DUP2 EQ PUSH2 0xC44 JUMPI PUSH1 0x0 DUP1 REVERT INVALID LOG2 PUSH5 0x6970667358 0x22 SLT KECCAK256 PUSH17 0x8CB32BBE5EE26A53811364CBBF37E47977 STOP 0xB8 MLOAD 0xF7 0xD9 DUP13 DIFFICULTY 0xC4 PUSH16 0x37ECAC34B064736F6C634300080E0033 ","sha1":"d9e3e4431a7724c83ba832398cc0c9eddeaba157","source":"// SPDX-License-Identifier: MIT\npragma solidity ^0.8.0;\n\nimport \"@openzeppelin/contracts/access/Ownable.sol\";\nimport \"@openzeppelin/contracts/token/ERC20/IERC20.sol\";\nimport \"@chainlink/contracts/src/v0.8/interfaces/AggregatorV3Interface.sol\";\n\ncontract TokenFarm is Ownable {\n    IERC20 public dappToken;\n\n    mapping(address => bool) public allowedTokens;\n    address[] public allowedTokensArr;\n\n    mapping(address => mapping(address => uint256)) public stakingBalance;\n    address[] public stakers;\n\n    mapping(address => uint256) public uniqueTokensStaked;\n\n    mapping(address => address) public tokenPriceFeedMapping;\n\n    constructor(address _dappTokenAddress) {\n        dappToken = IERC20(_dappTokenAddress);\n    }\n\n    function setPriceFeedContract(address _token, address _priceFeed)\n        external\n        onlyOwner\n    {\n        tokenPriceFeedMapping[_token] = _priceFeed;\n    }\n\n    function stakeTokens(uint256 _amount, address _token) external {\n        require(_amount > 0, \"Amount must be more than 0\");\n\n        require(tokenIsAllowed(_token), \"Token must be allowed\");\n\n        IERC20(_token).transferFrom(msg.sender, address(this), _amount);\n        updateUniqueTokenssStaked(msg.sender, _token);\n        stakingBalance[_token][msg.sender] += _amount;\n        if (uniqueTokensStaked[msg.sender] == 1) {\n            stakers.push(msg.sender);\n        }\n    }\n\n    function unstakeTokens(address _token) external {\n        uint256 balance = stakingBalance[_token][msg.sender];\n        require(balance > 0, \"Staking balance must be greater than 0\");\n        // prone to re entrancy attack\n        IERC20(_token).transfer(msg.sender, balance);\n        stakingBalance[_token][msg.sender] = 0;\n        uniqueTokensStaked[msg.sender]--;\n    }\n\n    function issueTokens() external onlyOwner {\n        for (\n            uint256 stakersIndex = 0;\n            stakersIndex < stakers.length;\n            stakersIndex++\n        ) {\n            address recipient = stakers[stakersIndex];\n            // send token reward\n            uint256 userTotalValue = getUserTotalValue(recipient);\n            dappToken.transfer(recipient, userTotalValue);\n        }\n    }\n\n    function getUserTotalValue(address _user) public view returns (uint256) {\n        require(uniqueTokensStaked[_user] > 0, \"No Token Staked\");\n        uint256 totalValue;\n        for (\n            uint256 allowedTokenIdx = 0;\n            allowedTokenIdx < allowedTokensArr.length;\n            allowedTokenIdx++\n        ) {\n            totalValue += getUserSingleTokenValue(\n                _user,\n                allowedTokensArr[allowedTokenIdx]\n            );\n        }\n        return totalValue;\n    }\n\n    function getUserSingleTokenValue(address _user, address _token)\n        public\n        view\n        returns (uint256)\n    {\n        if (stakingBalance[_token][_user] <= 0) {\n            return 0;\n        }\n\n        (uint256 price, uint256 decimals) = getTokenValue(_token);\n        return (stakingBalance[_token][_user] * price) / (10**decimals);\n    }\n\n    function getTokenValue(address _token)\n        public\n        view\n        returns (uint256, uint256)\n    {\n        address priceFeedAddress = tokenPriceFeedMapping[_token];\n        AggregatorV3Interface priceFeed = AggregatorV3Interface(\n            priceFeedAddress\n        );\n        (, int256 price, , , ) = priceFeed.latestRoundData();\n        uint256 decimals = uint256(priceFeed.decimals());\n        return (uint256(price), decimals);\n    }\n\n    function addAllowedTokens(address _token) external onlyOwner {\n        allowedTokens[_token] = true;\n        allowedTokensArr.push(_token);\n    }\n\n    function updateUniqueTokenssStaked(address _user, address _token) internal {\n        if (stakingBalance[_token][_user] >= 0) {\n            uniqueTokensStaked[_user]++;\n        }\n    }\n\n    // function removeAllowedTokens(address _token) public onlyOwner {\n    //     allowedTokens[_token] = false;\n    // }\n\n    function tokenIsAllowed(address _token) public view returns (bool) {\n        return allowedTokens[_token];\n    }\n}\n","sourcePath":"contracts/TokenFarm.sol","type":"contract","deployment":{"address":"0x5e2699BCFBcF68258546551038B9D2E9D73C260d","chainid":"4","blockHeight":10743766}}